:100000000C942A000C94D8040C9404050C9430052C
:100010000C9434000C9434000C9434000C94340090
:100020000C9434000C9434000C9434000C94340080
:100030000C9434000C9434000C9434000C94340070
:100040000C9434000C9434000C9434000C94340060
:100050000C94340011241FBECFE5D8E0DEBFCDBF25
:100060000E9478050C949E050C940000DF93CF93BA
:10007000CDB7DEB727970FB6F894DEBF0FBECDBF62
:1000800089836A834B838B81813009F06FC08981BA
:10009000282F30E03F832E838E819F818130910510
:1000A00049F12E813F81223031052CF48E819F81D0
:1000B000009761F0D2C02E813F812230310571F16D
:1000C0008E819F8183309105E9F1C7C0AAE3B0E03A
:1000D000EAE3F0E08081482F8A81282F30E081E038
:1000E00090E0022E02C0880F991F0A94E2F7842B39
:1000F0008C93B3C0A7E3B0E0E7E3F0E08081482F42
:100100008A81282F30E081E090E0022E02C0880F23
:10011000991F0A94E2F7842B8C939FC0A4E3B0E06C
:10012000E4E3F0E08081482F8A81282F30E081E0ED
:1001300090E0022E02C0880F991F0A94E2F7842BE8
:100140008C938BC0A1E3B0E0E1E3F0E08081482F25
:100150008A81282F30E081E090E0022E02C0880FD3
:10016000991F0A94E2F7842B8C9377C08B818823A4
:1001700009F073C08981282F30E03D832C838C8166
:100180009D818130910559F12C813D8122303105CD
:100190002CF48C819D81009769F05FC02C813D819A
:1001A0002230310589F18C819D818330910509F4DC
:1001B00040C053C0AAE3B0E0EAE3F0E08081482FFA
:1001C0008A81282F30E081E090E0022E02C0880F63
:1001D000991F0A94E2F7809584238C933EC0A7E38D
:1001E000B0E0E7E3F0E08081482F8A81282F30E0FB
:1001F00081E090E0022E02C0880F991F0A94E2F776
:10020000809584238C9329C0A4E3B0E0E4E3F0E07C
:100210008081482F8A81282F30E081E090E0022EF3
:1002200002C0880F991F0A94E2F7809584238C936B
:1002300014C0A1E3B0E0E1E3F0E08081482F8A81BF
:10024000282F30E081E090E0022E02C0880F991F35
:100250000A94E2F7809584238C9327960FB6F8943E
:10026000DEBF0FBECDBFCF91DF910895DF93CF9357
:10027000CDB7DEB727970FB6F894DEBF0FBECDBF60
:1002800089836A834B838B81813009F06FC08981B8
:10029000282F30E03F832E838E819F81813091050E
:1002A00049F12E813F81223031052CF48E819F81CE
:1002B000009761F0D2C02E813F812230310571F16B
:1002C0008E819F8183309105E9F1C7C0ABE3B0E037
:1002D000EBE3F0E08081482F8A81282F30E081E035
:1002E00090E0022E02C0880F991F0A94E2F7842B37
:1002F0008C93B3C0A8E3B0E0E8E3F0E08081482F3E
:100300008A81282F30E081E090E0022E02C0880F21
:10031000991F0A94E2F7842B8C939FC0A5E3B0E069
:10032000E5E3F0E08081482F8A81282F30E081E0EA
:1003300090E0022E02C0880F991F0A94E2F7842BE6
:100340008C938BC0A2E3B0E0E2E3F0E08081482F21
:100350008A81282F30E081E090E0022E02C0880FD1
:10036000991F0A94E2F7842B8C9377C08B818823A2
:1003700009F073C08981282F30E03D832C838C8164
:100380009D818130910559F12C813D8122303105CB
:100390002CF48C819D81009769F05FC02C813D8198
:1003A0002230310589F18C819D818330910509F4DA
:1003B00040C053C0ABE3B0E0EBE3F0E08081482FF6
:1003C0008A81282F30E081E090E0022E02C0880F61
:1003D000991F0A94E2F7809584238C933EC0A8E38A
:1003E000B0E0E8E3F0E08081482F8A81282F30E0F8
:1003F00081E090E0022E02C0880F991F0A94E2F774
:10040000809584238C9329C0A5E3B0E0E5E3F0E078
:100410008081482F8A81282F30E081E090E0022EF1
:1004200002C0880F991F0A94E2F7809584238C9369
:1004300014C0A2E3B0E0E2E3F0E08081482F8A81BB
:10044000282F30E081E090E0022E02C0880F991F33
:100450000A94E2F7809584238C9327960FB6F8943C
:10046000DEBF0FBECDBFCF91DF910895DF93CF9355
:1004700000D000D0CDB7DEB789836A838981282F69
:1004800030E03C832B838B819C8181309105D1F0BE
:100490002B813C81223031052CF48B819C8100978B
:1004A00061F01EC02B813C812230310581F08B81AF
:1004B0009C818330910581F013C0EAE3F0E08A81EA
:1004C00080830EC0E7E3F0E08A81808309C0E4E323
:1004D000F0E08A81808304C0E1E3F0E08A818083D8
:1004E0000F900F900F900F90CF91DF910895DF93B1
:1004F000CF9300D000D0CDB7DEB789836A838981DE
:10050000282F30E03C832B838B819C8181309105A7
:10051000D1F02B813C81223031052CF48B819C81E0
:10052000009761F01EC02B813C812230310581F0A3
:100530008B819C818330910581F013C0EBE3F0E067
:100540008A8180830EC0E8E3F0E08A81808309C05D
:10055000E5E3F0E08A81808304C0E2E3F0E08A8191
:1005600080830F900F900F900F90CF91DF9108959F
:10057000DF93CF9300D000D0CDB7DEB789836A83F5
:100580008981282F30E03C832B838B819C818130B3
:10059000910549F12B813C81223031052CF48B816E
:1005A0009C81009761F05AC02B813C81223031053B
:1005B00071F18B819C8183309105E9F14FC0ABE3F0
:1005C000B0E0EBE3F0E08081482F8A81282F30E013
:1005D00081E090E0022E02C0880F991F0A94E2F792
:1005E00084278C933BC0A8E3B0E0E8E3F0E080818F
:1005F000482F8A81282F30E081E090E0022E02C04F
:10060000880F991F0A94E2F784278C9327C0A5E3EB
:10061000B0E0E5E3F0E08081482F8A81282F30E0C8
:1006200081E090E0022E02C0880F991F0A94E2F741
:1006300084278C9313C0A2E3B0E0E2E3F0E0808172
:10064000482F8A81282F30E081E090E0022E02C0FE
:10065000880F991F0A94E2F784278C930F900F90CC
:100660000F900F90CF91DF910895DF93CF9300D03B
:1006700000D00F92CDB7DEB78A836B838A81282F93
:1006800030E03D832C834C815D814130510541F147
:100690008C819D818230910534F42C813D8121151E
:1006A000310561F052C04C815D814230510551F1FC
:1006B0008C819D8183309105B9F147C0E9E3F0E079
:1006C0008081282F30E08B81882F90E0A90102C023
:1006D000559547958A95E2F7CA018170898335C09F
:1006E000E6E3F0E08081282F30E08B81882F90E0D6
:1006F000A90102C0559547958A95E2F7CA01817014
:10070000898323C0E3E3F0E08081282F30E08B81F0
:10071000882F90E0A90102C0559547958A95E2F788
:10072000CA018170898311C0E0E3F0E08081282F45
:1007300030E08B81882F90E0A90102C05595479544
:100740008A95E2F7CA018170898389810F900F90A1
:100750000F900F900F90CF91DF910895DF93CF937B
:10076000CDB7DEB728970FB6F894DEBF0FBECDBF6A
:1007700089836A830E945C058981882309F06CC0A3
:1007800083E062E040E00E94360083E062E041E006
:100790000E9436018A81282F30E038872F838F818D
:1007A00098858130910521F12F81388522303105DE
:1007B0002CF48F819885009761F046C02F81388591
:1007C0002230310521F18F8198858330910571F1B7
:1007D0003BC0A5E5B0E0E5E5F0E080818E7F8C933D
:1007E000A5E5B0E0E5E5F0E080818D7F8C932CC03D
:1007F000A5E5B0E0E5E5F0E0808181608C93A5E5BA
:10080000B0E0E5E5F0E0808182608C931DC0A5E555
:10081000B0E0E5E5F0E080818E7F8C93A5E5B0E067
:10082000E5E5F0E0808182608C930EC0A5E5B0E044
:10083000E5E5F0E0808181608C93A5E5B0E0E5E539
:10084000F0E080818D7F8C93ABE5B0E0EBE5F0E0EC
:10085000808180648C93A3C08981813009F06CC051
:1008600083E063E040E00E94360083E063E041E023
:100870000E9436018A81282F30E03E832D838D81AE
:100880009E818130910521F12D813E8122303105FB
:100890002CF48D819E81009761F046C02D813E81B0
:1008A0002230310521F18D819E818330910571F1D6
:1008B0003BC0A5E5B0E0E5E5F0E080818B7F8C935F
:1008C000A5E5B0E0E5E5F0E08081877F8C932CC062
:1008D000A5E5B0E0E5E5F0E0808184608C93A5E5D6
:1008E000B0E0E5E5F0E0808188608C931DC0A5E56F
:1008F000B0E0E5E5F0E080818B7F8C93A5E5B0E08A
:10090000E5E5F0E0808188608C930EC0A5E5B0E05D
:10091000E5E5F0E0808184608C93A5E5B0E0E5E555
:10092000F0E08081877F8C93ABE5B0E0EBE5F0E011
:10093000808180688C9333C08981823081F581E029
:1009400062E040E00E94360081E062E041E00E9407
:1009500036018A81282F30E03C832B838B819C8158
:100960008130910531F02B813C812230310549F0F5
:100970000FC0A5E5B0E0E5E5F0E0808180648C93F0
:1009800007C0A5E5B0E0E5E5F0E080818F7B8C93C2
:10099000ABE5B0E0EBE5F0E0808180628C932896D7
:1009A0000FB6F894DEBF0FBECDBFCF91DF91089593
:1009B0001F920F920FB60F9211242F933F934F93D4
:1009C0005F936F937F938F939F93AF93BF93EF93B7
:1009D000FF93DF93CF93CDB7DEB780E060E00E9456
:1009E000B802CF91DF91FF91EF91BF91AF919F91AD
:1009F0008F917F916F915F914F913F912F910F90C8
:100A00000FBE0F901F9018951F920F920FB60F9266
:100A100011242F933F934F935F936F937F938F9303
:100A20009F93AF93BF93EF93FF93DF93CF93CDB794
:100A3000DEB780E061E00E94B802CF91DF91FF91C4
:100A4000EF91BF91AF919F918F917F916F915F9146
:100A50004F913F912F910F900FBE0F901F901895BF
:100A60001F920F920FB60F9211242F933F934F9323
:100A70005F936F937F938F939F93AF93BF93EF9306
:100A8000FF93DF93CF93CDB7DEB780E062E00E94A3
:100A9000B802CF91DF91FF91EF91BF91AF919F91FC
:100AA0008F917F916F915F914F913F912F910F9017
:100AB0000FBE0F901F901895DF93CF93CDB7DEB781
:100AC000AFE5B0E0EFE5F0E0808180688C93CF91F6
:100AD000DF910895DF93CF93CDB7DEB7AFE5B0E0F8
:100AE000EFE5F0E080818F778C93CF91DF910895CF
:100AF000DF93CF93CDB7DEB780E060E041E00E94A6
:100B0000360080E061E041E00E94360080E062E073
:100B100041E00E94360080E090E061E070E00E94D9
:100B2000AE0381E090E060E070E00E94AE0382E0FE
:100B300090E062E070E00E94AE03FFCFF894FFCF38
:00000001FF
