:100000000C942A000C943C000C943C000C943C0092
:100010000C943C000C943C000C943C000C943C0070
:100020000C943C000C943C000C9485040C943C040F
:100030000C943C000C943C000C943C000C943C0050
:100040000C943C000C943C000C943C000C943C0040
:100050000C943C0011241FBECFE5D8E0DEBFCDBF1D
:1000600010E0A0E6B0E001C01D92A636B107E1F7AE
:100070000E94D9040C94EB040C940000DF93CF93FE
:10008000CDB7DEB727970FB6F894DEBF0FBECDBF52
:1000900089836A834B838B81813009F06FC08981AA
:1000A000282F30E03F832E838E819F818130910500
:1000B00049F12E813F81223031052CF48E819F81C0
:1000C000009761F0D2C02E813F812230310571F15D
:1000D0008E819F8183309105E9F1C7C0AAE3B0E02A
:1000E000EAE3F0E08081482F8A81282F30E081E028
:1000F00090E0022E02C0880F991F0A94E2F7842B29
:100100008C93B3C0A7E3B0E0E7E3F0E08081482F31
:100110008A81282F30E081E090E0022E02C0880F13
:10012000991F0A94E2F7842B8C939FC0A4E3B0E05C
:10013000E4E3F0E08081482F8A81282F30E081E0DD
:1001400090E0022E02C0880F991F0A94E2F7842BD8
:100150008C938BC0A1E3B0E0E1E3F0E08081482F15
:100160008A81282F30E081E090E0022E02C0880FC3
:10017000991F0A94E2F7842B8C9377C08B81882394
:1001800009F073C08981282F30E03D832C838C8156
:100190009D818130910559F12C813D8122303105BD
:1001A0002CF48C819D81009769F05FC02C813D818A
:1001B0002230310589F18C819D818330910509F4CC
:1001C00040C053C0AAE3B0E0EAE3F0E08081482FEA
:1001D0008A81282F30E081E090E0022E02C0880F53
:1001E000991F0A94E2F7809584238C933EC0A7E37D
:1001F000B0E0E7E3F0E08081482F8A81282F30E0EB
:1002000081E090E0022E02C0880F991F0A94E2F765
:10021000809584238C9329C0A4E3B0E0E4E3F0E06C
:100220008081482F8A81282F30E081E090E0022EE3
:1002300002C0880F991F0A94E2F7809584238C935B
:1002400014C0A1E3B0E0E1E3F0E08081482F8A81AF
:10025000282F30E081E090E0022E02C0880F991F25
:100260000A94E2F7809584238C9327960FB6F8942E
:10027000DEBF0FBECDBFCF91DF910895DF93CF9347
:10028000CDB7DEB727970FB6F894DEBF0FBECDBF50
:1002900089836A834B838B81813009F06FC08981A8
:1002A000282F30E03F832E838E819F8181309105FE
:1002B00049F12E813F81223031052CF48E819F81BE
:1002C000009761F0D2C02E813F812230310571F15B
:1002D0008E819F8183309105E9F1C7C0ABE3B0E027
:1002E000EBE3F0E08081482F8A81282F30E081E025
:1002F00090E0022E02C0880F991F0A94E2F7842B27
:100300008C93B3C0A8E3B0E0E8E3F0E08081482F2D
:100310008A81282F30E081E090E0022E02C0880F11
:10032000991F0A94E2F7842B8C939FC0A5E3B0E059
:10033000E5E3F0E08081482F8A81282F30E081E0DA
:1003400090E0022E02C0880F991F0A94E2F7842BD6
:100350008C938BC0A2E3B0E0E2E3F0E08081482F11
:100360008A81282F30E081E090E0022E02C0880FC1
:10037000991F0A94E2F7842B8C9377C08B81882392
:1003800009F073C08981282F30E03D832C838C8154
:100390009D818130910559F12C813D8122303105BB
:1003A0002CF48C819D81009769F05FC02C813D8188
:1003B0002230310589F18C819D818330910509F4CA
:1003C00040C053C0ABE3B0E0EBE3F0E08081482FE6
:1003D0008A81282F30E081E090E0022E02C0880F51
:1003E000991F0A94E2F7809584238C933EC0A8E37A
:1003F000B0E0E8E3F0E08081482F8A81282F30E0E8
:1004000081E090E0022E02C0880F991F0A94E2F763
:10041000809584238C9329C0A5E3B0E0E5E3F0E068
:100420008081482F8A81282F30E081E090E0022EE1
:1004300002C0880F991F0A94E2F7809584238C9359
:1004400014C0A2E3B0E0E2E3F0E08081482F8A81AB
:10045000282F30E081E090E0022E02C0880F991F23
:100460000A94E2F7809584238C9327960FB6F8942C
:10047000DEBF0FBECDBFCF91DF910895DF93CF9345
:1004800000D000D0CDB7DEB789836A838981282F59
:1004900030E03C832B838B819C8181309105D1F0AE
:1004A0002B813C81223031052CF48B819C8100977B
:1004B00061F01EC02B813C812230310581F08B819F
:1004C0009C818330910581F013C0EAE3F0E08A81DA
:1004D00080830EC0E7E3F0E08A81808309C0E4E313
:1004E000F0E08A81808304C0E1E3F0E08A818083C8
:1004F0000F900F900F900F90CF91DF910895DF93A1
:10050000CF9300D000D0CDB7DEB789836A838981CD
:10051000282F30E03C832B838B819C818130910597
:10052000D1F02B813C81223031052CF48B819C81D0
:10053000009761F01EC02B813C812230310581F093
:100540008B819C818330910581F013C0EBE3F0E057
:100550008A8180830EC0E8E3F0E08A81808309C04D
:10056000E5E3F0E08A81808304C0E2E3F0E08A8181
:1005700080830F900F900F900F90CF91DF9108958F
:10058000DF93CF9300D000D0CDB7DEB789836A83E5
:100590008981282F30E03C832B838B819C818130A3
:1005A000910549F12B813C81223031052CF48B815E
:1005B0009C81009761F05AC02B813C81223031052B
:1005C00071F18B819C8183309105E9F14FC0ABE3E0
:1005D000B0E0EBE3F0E08081482F8A81282F30E003
:1005E00081E090E0022E02C0880F991F0A94E2F782
:1005F00084278C933BC0A8E3B0E0E8E3F0E080817F
:10060000482F8A81282F30E081E090E0022E02C03E
:10061000880F991F0A94E2F784278C9327C0A5E3DB
:10062000B0E0E5E3F0E08081482F8A81282F30E0B8
:1006300081E090E0022E02C0880F991F0A94E2F731
:1006400084278C9313C0A2E3B0E0E2E3F0E0808162
:10065000482F8A81282F30E081E090E0022E02C0EE
:10066000880F991F0A94E2F784278C930F900F90BC
:100670000F900F90CF91DF910895DF93CF9300D02B
:1006800000D00F92CDB7DEB78A836B838A81282F83
:1006900030E03D832C834C815D814130510541F137
:1006A0008C819D818230910534F42C813D8121150E
:1006B000310561F052C04C815D814230510551F1EC
:1006C0008C819D8183309105B9F147C0E9E3F0E069
:1006D0008081282F30E08B81882F90E0A90102C013
:1006E000559547958A95E2F7CA018170898335C08F
:1006F000E6E3F0E08081282F30E08B81882F90E0C6
:10070000A90102C0559547958A95E2F7CA01817003
:10071000898323C0E3E3F0E08081282F30E08B81E0
:10072000882F90E0A90102C0559547958A95E2F778
:10073000CA018170898311C0E0E3F0E08081282F35
:1007400030E08B81882F90E0A90102C05595479534
:100750008A95E2F7CA018170898389810F900F9091
:100760000F900F900F90CF91DF910895DF93CF936B
:10077000CDB7DEB7AFE5B0E0EFE5F0E080818068AF
:100780008C93CF91DF910895DF93CF93CDB7DEB7F0
:10079000AFE5B0E0EFE5F0E080818F778C93CF910B
:1007A000DF910895DF93CF9300D0CDB7DEB79A8362
:1007B000898389819A8190936100809360000F9072
:1007C0000F90CF91DF910895DF93CF93CDB7DEB730
:1007D000A3E5B0E0E3E5F0E080818E7F8C93A3E5B4
:1007E000B0E0E3E5F0E0808182608C93A3E5B0E0C7
:1007F000E3E5F0E080818B7F8C93A3E5B0E0E3E557
:10080000F0E0808188608C93A3E5B0E0E3E5F0E060
:10081000808180648C93A3E5B0E0E3E5F0E0808123
:100820008F7E8C93A3E5B0E0E3E5F0E08081806209
:100830008C93CF91DF910895DF93CF9300D0CDB704
:10084000DEB79A838983ECE5F0E0898180830F909D
:100850000F90CF91DF910895DF93CF9300D0CDB764
:10086000DEB79A838983E2E5F0E0898180830F9087
:100870000F90CF91DF9108951F920F920FB60F92B4
:1008800011242F933F934F935F936F937F938F9395
:100890009F93AF93BF93EF93FF93DF93CF93CDB726
:1008A000DEB780916200909163002FE0833492075D
:1008B00081F48091600090916100009799F0E0913F
:1008C0006000F0916100099510926300109262003F
:1008D00009C080916200909163000196909363003B
:1008E00080936200CF91DF91FF91EF91BF91AF9123
:1008F0009F918F917F916F915F914F913F912F9138
:100900000F900FBE0F901F9018951F920F920FB669
:100910000F9211242F933F934F935F936F937F9385
:100920008F939F93AF93BF93EF93FF93DF93CF93F7
:10093000CDB7DEB780916400909165002FE0803ADA
:10094000920781F48091600090916100009799F086
:10095000E0916000F091610009951092650010929D
:10096000640009C0809164009091650001969093A5
:10097000650080936400CF91DF91FF91EF91BF916B
:10098000AF919F918F917F916F915F914F913F9127
:100990002F910F900FBE0F901F901895DF93CF935C
:1009A000CDB7DEB780E060E00E94C002CF91DF915A
:1009B0000895DF93CF93CDB7DEB781E063E041E0E8
:1009C0000E943E000E94B6030E94E4038FE790E07D
:0A09D0000E941C04FFCFF894FFCF33
:00000001FF
