:100000000C942A000C9414050C9447050C947A0562
:100010000C943C000C943C000C943C000C943C0070
:100020000C943C000C943C000C943C000C943C0060
:100030000C943C000C943C000C943C000C943C0050
:100040000C943C000C943C000C943C000C943C0040
:100050000C943C0011241FBECFE5D8E0DEBFCDBF1D
:1000600010E0A0E6B0E001C01D92A636B107E1F7AE
:100070000E94C1060C94EE060C940000DF93CF930F
:10008000CDB7DEB727970FB6F894DEBF0FBECDBF52
:1000900089836A834B838B81813009F06FC08981AA
:1000A000282F30E03F832E838E819F818130910500
:1000B00049F12E813F81223031052CF48E819F81C0
:1000C000009761F0D2C02E813F812230310571F15D
:1000D0008E819F8183309105E9F1C7C0AAE3B0E02A
:1000E000EAE3F0E08081482F8A81282F30E081E028
:1000F00090E0022E02C0880F991F0A94E2F7842B29
:100100008C93B3C0A7E3B0E0E7E3F0E08081482F31
:100110008A81282F30E081E090E0022E02C0880F13
:10012000991F0A94E2F7842B8C939FC0A4E3B0E05C
:10013000E4E3F0E08081482F8A81282F30E081E0DD
:1001400090E0022E02C0880F991F0A94E2F7842BD8
:100150008C938BC0A1E3B0E0E1E3F0E08081482F15
:100160008A81282F30E081E090E0022E02C0880FC3
:10017000991F0A94E2F7842B8C9377C08B81882394
:1001800009F073C08981282F30E03D832C838C8156
:100190009D818130910559F12C813D8122303105BD
:1001A0002CF48C819D81009769F05FC02C813D818A
:1001B0002230310589F18C819D818330910509F4CC
:1001C00040C053C0AAE3B0E0EAE3F0E08081482FEA
:1001D0008A81282F30E081E090E0022E02C0880F53
:1001E000991F0A94E2F7809584238C933EC0A7E37D
:1001F000B0E0E7E3F0E08081482F8A81282F30E0EB
:1002000081E090E0022E02C0880F991F0A94E2F765
:10021000809584238C9329C0A4E3B0E0E4E3F0E06C
:100220008081482F8A81282F30E081E090E0022EE3
:1002300002C0880F991F0A94E2F7809584238C935B
:1002400014C0A1E3B0E0E1E3F0E08081482F8A81AF
:10025000282F30E081E090E0022E02C0880F991F25
:100260000A94E2F7809584238C9327960FB6F8942E
:10027000DEBF0FBECDBFCF91DF910895DF93CF9347
:10028000CDB7DEB727970FB6F894DEBF0FBECDBF50
:1002900089836A834B838B81813009F06FC08981A8
:1002A000282F30E03F832E838E819F8181309105FE
:1002B00049F12E813F81223031052CF48E819F81BE
:1002C000009761F0D2C02E813F812230310571F15B
:1002D0008E819F8183309105E9F1C7C0ABE3B0E027
:1002E000EBE3F0E08081482F8A81282F30E081E025
:1002F00090E0022E02C0880F991F0A94E2F7842B27
:100300008C93B3C0A8E3B0E0E8E3F0E08081482F2D
:100310008A81282F30E081E090E0022E02C0880F11
:10032000991F0A94E2F7842B8C939FC0A5E3B0E059
:10033000E5E3F0E08081482F8A81282F30E081E0DA
:1003400090E0022E02C0880F991F0A94E2F7842BD6
:100350008C938BC0A2E3B0E0E2E3F0E08081482F11
:100360008A81282F30E081E090E0022E02C0880FC1
:10037000991F0A94E2F7842B8C9377C08B81882392
:1003800009F073C08981282F30E03D832C838C8154
:100390009D818130910559F12C813D8122303105BB
:1003A0002CF48C819D81009769F05FC02C813D8188
:1003B0002230310589F18C819D818330910509F4CA
:1003C00040C053C0ABE3B0E0EBE3F0E08081482FE6
:1003D0008A81282F30E081E090E0022E02C0880F51
:1003E000991F0A94E2F7809584238C933EC0A8E37A
:1003F000B0E0E8E3F0E08081482F8A81282F30E0E8
:1004000081E090E0022E02C0880F991F0A94E2F763
:10041000809584238C9329C0A5E3B0E0E5E3F0E068
:100420008081482F8A81282F30E081E090E0022EE1
:1004300002C0880F991F0A94E2F7809584238C9359
:1004400014C0A2E3B0E0E2E3F0E08081482F8A81AB
:10045000282F30E081E090E0022E02C0880F991F23
:100460000A94E2F7809584238C9327960FB6F8942C
:10047000DEBF0FBECDBFCF91DF910895DF93CF9345
:1004800000D000D0CDB7DEB789836A838981282F59
:1004900030E03C832B838B819C8181309105D1F0AE
:1004A0002B813C81223031052CF48B819C8100977B
:1004B00061F01EC02B813C812230310581F08B819F
:1004C0009C818330910581F013C0EAE3F0E08A81DA
:1004D00080830EC0E7E3F0E08A81808309C0E4E313
:1004E000F0E08A81808304C0E1E3F0E08A818083C8
:1004F0000F900F900F900F90CF91DF910895DF93A1
:10050000CF9300D000D0CDB7DEB789836A838981CD
:10051000282F30E03C832B838B819C818130910597
:10052000D1F02B813C81223031052CF48B819C81D0
:10053000009761F01EC02B813C812230310581F093
:100540008B819C818330910581F013C0EBE3F0E057
:100550008A8180830EC0E8E3F0E08A81808309C04D
:10056000E5E3F0E08A81808304C0E2E3F0E08A8181
:1005700080830F900F900F900F90CF91DF9108958F
:10058000DF93CF9300D000D0CDB7DEB789836A83E5
:100590008981282F30E03C832B838B819C818130A3
:1005A000910549F12B813C81223031052CF48B815E
:1005B0009C81009761F05AC02B813C81223031052B
:1005C00071F18B819C8183309105E9F14FC0ABE3E0
:1005D000B0E0EBE3F0E08081482F8A81282F30E003
:1005E00081E090E0022E02C0880F991F0A94E2F782
:1005F00084278C933BC0A8E3B0E0E8E3F0E080817F
:10060000482F8A81282F30E081E090E0022E02C03E
:10061000880F991F0A94E2F784278C9327C0A5E3DB
:10062000B0E0E5E3F0E08081482F8A81282F30E0B8
:1006300081E090E0022E02C0880F991F0A94E2F731
:1006400084278C9313C0A2E3B0E0E2E3F0E0808162
:10065000482F8A81282F30E081E090E0022E02C0EE
:10066000880F991F0A94E2F784278C930F900F90BC
:100670000F900F90CF91DF910895DF93CF9300D02B
:1006800000D00F92CDB7DEB78A836B838A81282F83
:1006900030E03D832C834C815D814130510541F137
:1006A0008C819D818230910534F42C813D8121150E
:1006B000310561F052C04C815D814230510551F1EC
:1006C0008C819D8183309105B9F147C0E9E3F0E069
:1006D0008081282F30E08B81882F90E0A90102C013
:1006E000559547958A95E2F7CA018170898335C08F
:1006F000E6E3F0E08081282F30E08B81882F90E0C6
:10070000A90102C0559547958A95E2F7CA01817003
:10071000898323C0E3E3F0E08081282F30E08B81E0
:10072000882F90E0A90102C0559547958A95E2F778
:10073000CA018170898311C0E0E3F0E08081282F35
:1007400030E08B81882F90E0A90102C05595479534
:100750008A95E2F7CA018170898389810F900F9091
:100760000F900F900F90CF91DF910895DF93CF936B
:1007700000D0CDB7DEB79A83898389819A8190931F
:100780006100809360000F900F90CF91DF910895EA
:10079000DF93CF9300D0CDB7DEB79A838983898169
:1007A0009A8190936300809362000F900F90CF9195
:1007B000DF910895DF93CF9300D0CDB7DEB79A8352
:1007C000898389819A8190936500809364000F905A
:1007D0000F90CF91DF910895DF93CF93CDB7DEB720
:1007E00028970FB6F894DEBF0FBECDBF89836A830A
:1007F0008981882309F06CC083E062E040E00E94B8
:100800003E0083E062E041E00E943E018A81282FA1
:1008100030E038872F838F8198858130910521F1D1
:100820002F813885223031052CF48F8198850097EF
:1008300061F046C02F8138852230310521F18F814A
:1008400098858330910571F13BC0A5E5B0E0E5E501
:10085000F0E080818E7F8C93A5E5B0E0E5E5F0E0E7
:1008600080818D7F8C932CC0A5E5B0E0E5E5F0E0BC
:10087000808181608C93A5E5B0E0E5E5F0E08081C2
:1008800082608C931DC0A5E5B0E0E5E5F0E08081D5
:100890008E7F8C93A5E5B0E0E5E5F0E08081826095
:1008A0008C930EC0A5E5B0E0E5E5F0E080818160C5
:1008B0008C93A5E5B0E0E5E5F0E080818D7F8C9339
:1008C000ABE5B0E0EBE5F0E0808180648C93A3C001
:1008D0008981813009F06CC083E063E040E00E94D0
:1008E0003E0083E063E041E00E943E018A81282FC0
:1008F00030E03E832D838D819E818130910521F1F1
:100900002D813E81223031052CF48D819E8100970E
:1009100061F046C02D813E812230310521F18D816B
:100920009E818330910571F13BC0A5E5B0E0E5E51E
:10093000F0E080818B7F8C93A5E5B0E0E5E5F0E009
:100940008081877F8C932CC0A5E5B0E0E5E5F0E0E1
:10095000808184608C93A5E5B0E0E5E5F0E08081DE
:1009600088608C931DC0A5E5B0E0E5E5F0E08081EE
:100970008B7F8C93A5E5B0E0E5E5F0E080818860B1
:100980008C930EC0A5E5B0E0E5E5F0E080818460E1
:100990008C93A5E5B0E0E5E5F0E08081877F8C935E
:1009A000ABE5B0E0EBE5F0E0808180688C9333C08C
:1009B0008981823081F581E062E040E00E943E0062
:1009C00081E062E041E00E943E018A81282F30E010
:1009D0003C832B838B819C818130910531F02B816D
:1009E0003C812230310549F00FC0A5E5B0E0E5E5D6
:1009F000F0E0808180648C9307C0A5E5B0E0E5E578
:100A0000F0E080818F7B8C93ABE5B0E0EBE5F0E02C
:100A1000808180628C9328960FB6F894DEBF0FBE5B
:100A2000CDBFCF91DF9108951F920F920FB60F9215
:100A300011242F933F934F935F936F937F938F93E3
:100A40009F93AF93BF93EF93FF93DF93CF93CDB774
:100A5000DEB78091600090916100009729F0E091ED
:100A60006000F09161000995CF91DF91FF91EF91C6
:100A7000BF91AF919F918F917F916F915F914F91B6
:100A80003F912F910F900FBE0F901F9018951F92BE
:100A90000F920FB60F9211242F933F934F935F93B2
:100AA0006F937F938F939F93AF93BF93EF93FF9336
:100AB000DF93CF93CDB7DEB7809162009091630052
:100AC000009729F0E0916200F09163000995CF91C1
:100AD000DF91FF91EF91BF91AF919F918F917F91A6
:100AE0006F915F914F913F912F910F900FBE0F909B
:100AF0001F9018951F920F920FB60F9211242F93EB
:100B00003F934F935F936F937F938F939F93AF9395
:100B1000BF93EF93FF93DF93CF93CDB7DEB7809171
:100B2000640090916500009729F0E0916400F091D5
:100B300065000995CF91DF91FF91EF91BF91AF9142
:100B40009F918F917F916F915F914F913F912F91E5
:100B50000F900FBE0F901F901895DF93CF93CDB7D6
:100B6000DEB7AFE5B0E0EFE5F0E0808180688C9320
:100B7000CF91DF910895DF93CF93CDB7DEB7AFE587
:100B8000B0E0EFE5F0E080818F778C93CF91DF913B
:100B90000895DF93CF93CDB7DEB781E064E041E005
:100BA0000E943E0081E065E041E00E943E0081E05D
:100BB00066E040E00E943E0081E067E041E00E9484
:100BC0003E00ADE2B0E0EDE2F0E080818F778C9303
:100BD000ADE2B0E0EDE2F0E0808180648C93ADE2C4
:100BE000B0E0EDE2F0E080818F7D8C93ADE2B0E08B
:100BF000EDE2F0E0808180618C93ADE2B0E0EDE267
:100C0000F0E08081877F8C93ADE2B0E0EDE2F0E030
:100C100080818B7F8C93ADE2B0E0EDE2F0E08081EB
:100C20008D7F8C93ADE2B0E0EDE2F0E080818160F9
:100C30008C93AEE2B0E0EEE2F0E0808181608C93D4
:100C4000CF91DF910895DF93CF93CDB7DEB781E0E9
:100C500064E040E00E943E0081E065E040E00E94E8
:100C60003E0081E066E041E00E943E0081E067E0F6
:100C700040E00E943E00ADE2B0E0EDE2F0E08081B5
:100C80008F778C93ADE2B0E0EDE2F0E0808180649C
:100C90008C93ADE2B0E0EDE2F0E080818F7D8C934B
:100CA000ADE2B0E0EDE2F0E080818F7E8C93ADE2CA
:100CB000B0E0EDE2F0E08081877F8C93ADE2B0E0C0
:100CC000EDE2F0E080818B7F8C93ADE2B0E0EDE26D
:100CD000F0E080818D7F8C93ADE2B0E0EDE2F0E05A
:100CE000808181608C93AEE2B0E0EEE2F0E0808142
:100CF00081608C93CF91DF910895DF93CF930F9212
:100D0000CDB7DEB78983EFE2F0E089818083EEE240
:100D1000F0E080818823DCF7EFE2F0E080810F9043
:100D2000CF91DF910895DF93CF930F92CDB7DEB7C8
:100D300081E060E040E00E943E0181E061E041E04E
:100D40000E943E0181E60E947D0689830F90CF912B
:100D5000DF910895DF93CF930F92CDB7DEB781E097
:100D600060E041E00E943E0181E061E040E00E94DD
:100D70003E0182E60E947D0689830F90CF91DF912C
:100D80000895DF93CF93CDB7DEB70E94C9050E94C7
:100D9000AD0580E062E00E94EC0381E062E00E9429
:100DA000EC0381E060E041E00E943E0081E061E010
:100DB00041E00E943E0081E060E041E00E943E018F
:100DC00081E061E041E00E943E0183E996E00E94FB
:100DD000B6038AEA96E00E94C803FFCFF894FFCFDB
:00000001FF
