:100000000C942A000C943F000C943F000C943F0089
:100010000C943F000C943F000C943F000C943F0064
:100020000C943F000C943F000C943F000C943F0054
:100030000C943F000C943F000C943F000C943F0044
:100040000C943F000C943F000C943F000C943F0034
:100050000C943F0011241FBECFE5D8E0DEBFCDBF1A
:1000600010E0A0E6B0E0E4E0FAE002C005900D92F6
:10007000A836B107D9F70E94EB040C9400050C9444
:100080000000DF93CF93CDB7DEB727970FB6F89474
:10009000DEBF0FBECDBF89836A834B838B818130E6
:1000A00009F06FC08981282F30E03F832E838E8135
:1000B0009F818130910549F12E813F8122303105A8
:1000C0002CF48E819F81009761F0D2C02E813F81F8
:1000D0002230310571F18E819F8183309105E9F1E4
:1000E000C7C0AAE3B0E0EAE3F0E08081482F8A814C
:1000F000282F30E081E090E0022E02C0880F991F87
:100100000A94E2F7842B8C93B3C0A7E3B0E0E7E353
:10011000F0E08081482F8A81282F30E081E090E054
:10012000022E02C0880F991F0A94E2F7842B8C9349
:100130009FC0A4E3B0E0E4E3F0E08081482F8A812F
:10014000282F30E081E090E0022E02C0880F991F36
:100150000A94E2F7842B8C938BC0A1E3B0E0E1E337
:10016000F0E08081482F8A81282F30E081E090E004
:10017000022E02C0880F991F0A94E2F7842B8C93F9
:1001800077C08B81882309F073C08981282F30E0E4
:100190003D832C838C819D818130910559F12C8187
:1001A0003D81223031052CF48C819D81009769F0CE
:1001B0005FC02C813D812230310589F18C819D8188
:1001C0008330910509F440C053C0AAE3B0E0EAE3EC
:1001D000F0E08081482F8A81282F30E081E090E094
:1001E000022E02C0880F991F0A94E2F7809584239B
:1001F0008C933EC0A7E3B0E0E7E3F0E08081482FB6
:100200008A81282F30E081E090E0022E02C0880F22
:10021000991F0A94E2F7809584238C9329C0A4E364
:10022000B0E0E4E3F0E08081482F8A81282F30E0BD
:1002300081E090E0022E02C0880F991F0A94E2F735
:10024000809584238C9314C0A1E3B0E0E1E3F0E057
:100250008081482F8A81282F30E081E090E0022EB3
:1002600002C0880F991F0A94E2F7809584238C932B
:1002700027960FB6F894DEBF0FBECDBFCF91DF91AA
:100280000895DF93CF93CDB7DEB727970FB6F894D5
:10029000DEBF0FBECDBF89836A834B838B818130E4
:1002A00009F06FC08981282F30E03F832E838E8133
:1002B0009F818130910549F12E813F8122303105A6
:1002C0002CF48E819F81009761F0D2C02E813F81F6
:1002D0002230310571F18E819F8183309105E9F1E2
:1002E000C7C0ABE3B0E0EBE3F0E08081482F8A8148
:1002F000282F30E081E090E0022E02C0880F991F85
:100300000A94E2F7842B8C93B3C0A8E3B0E0E8E34F
:10031000F0E08081482F8A81282F30E081E090E052
:10032000022E02C0880F991F0A94E2F7842B8C9347
:100330009FC0A5E3B0E0E5E3F0E08081482F8A812B
:10034000282F30E081E090E0022E02C0880F991F34
:100350000A94E2F7842B8C938BC0A2E3B0E0E2E333
:10036000F0E08081482F8A81282F30E081E090E002
:10037000022E02C0880F991F0A94E2F7842B8C93F7
:1003800077C08B81882309F073C08981282F30E0E2
:100390003D832C838C819D818130910559F12C8185
:1003A0003D81223031052CF48C819D81009769F0CC
:1003B0005FC02C813D812230310589F18C819D8186
:1003C0008330910509F440C053C0ABE3B0E0EBE3E8
:1003D000F0E08081482F8A81282F30E081E090E092
:1003E000022E02C0880F991F0A94E2F78095842399
:1003F0008C933EC0A8E3B0E0E8E3F0E08081482FB2
:100400008A81282F30E081E090E0022E02C0880F20
:10041000991F0A94E2F7809584238C9329C0A5E361
:10042000B0E0E5E3F0E08081482F8A81282F30E0BA
:1004300081E090E0022E02C0880F991F0A94E2F733
:10044000809584238C9314C0A2E3B0E0E2E3F0E053
:100450008081482F8A81282F30E081E090E0022EB1
:1004600002C0880F991F0A94E2F7809584238C9329
:1004700027960FB6F894DEBF0FBECDBFCF91DF91A8
:100480000895DF93CF9300D000D0CDB7DEB7898336
:100490006A838981282F30E03C832B838B819C8168
:1004A00081309105D1F02B813C81223031052CF433
:1004B0008B819C81009761F01EC02B813C81223092
:1004C000310581F08B819C818330910581F013C0CF
:1004D000EAE3F0E08A8180830EC0E7E3F0E08A81FE
:1004E000808309C0E4E3F0E08A81808304C0E1E313
:1004F000F0E08A8180830F900F900F900F90CF9142
:10050000DF910895DF93CF9300D000D0CDB7DEB751
:1005100089836A838981282F30E03C832B838B81F8
:100520009C8181309105D1F02B813C8122303105B5
:100530002CF48B819C81009761F01EC02B813C8143
:100540002230310581F08B819C818330910581F0CF
:1005500013C0EBE3F0E08A8180830EC0E8E3F0E0B3
:100560008A81808309C0E5E3F0E08A81808304C04A
:10057000E2E3F0E08A8180830F900F900F900F905C
:10058000CF91DF910895DF93CF9300D000D0CDB706
:10059000DEB789836A838981282F30E03C832B83EF
:1005A0008B819C818130910549F12B813C812230E6
:1005B00031052CF48B819C81009761F05AC02B810E
:1005C0003C812230310571F18B819C818330910512
:1005D000E9F14FC0ABE3B0E0EBE3F0E08081482FFE
:1005E0008A81282F30E081E090E0022E02C0880F3F
:1005F000991F0A94E2F784278C933BC0A8E3B0E0EC
:10060000E8E3F0E08081482F8A81282F30E081E004
:1006100090E0022E02C0880F991F0A94E2F7842707
:100620008C9327C0A5E3B0E0E5E3F0E08081482F9C
:100630008A81282F30E081E090E0022E02C0880FEE
:10064000991F0A94E2F784278C9313C0A2E3B0E0C9
:10065000E2E3F0E08081482F8A81282F30E081E0BA
:1006600090E0022E02C0880F991F0A94E2F78427B7
:100670008C930F900F900F900F90CF91DF91089572
:10068000DF93CF9300D000D00F92CDB7DEB78A832F
:100690006B838A81282F30E03D832C834C815D81E0
:1006A0004130510541F18C819D818230910534F4B6
:1006B0002C813D812115310561F052C04C815D8155
:1006C0004230510551F18C819D8183309105B9F102
:1006D00047C0E9E3F0E08081282F30E08B81882F4C
:1006E00090E0A90102C0559547958A95E2F7CA01A5
:1006F0008170898335C0E6E3F0E08081282F30E007
:100700008B81882F90E0A90102C0559547958A9565
:10071000E2F7CA018170898323C0E3E3F0E08081BE
:10072000282F30E08B81882F90E0A90102C05595D9
:1007300047958A95E2F7CA018170898311C0E0E389
:10074000F0E08081282F30E08B81882F90E0A90194
:1007500002C0559547958A95E2F7CA018170898351
:1007600089810F900F900F900F900F90CF91DF9194
:100770000895DF93CF93CDB7DEB781E064E041E029
:100780000E94410081E065E041E00E94410081E07B
:1007900066E040E00E94410081E067E041E00E94A5
:1007A0004100ADE2B0E0EDE2F0E080818F778C9324
:1007B000ADE2B0E0EDE2F0E0808180648C93ADE2E8
:1007C000B0E0EDE2F0E080818F7D8C93ADE2B0E0AF
:1007D000EDE2F0E0808180618C93ADE2B0E0EDE28B
:1007E000F0E08081877F8C93ADE2B0E0EDE2F0E055
:1007F00080818B7F8C93ADE2B0E0EDE2F0E0808110
:100800008D7F8C93ADE2B0E0EDE2F0E0808181601D
:100810008C93AEE2B0E0EEE2F0E0808181608C93F8
:10082000CF91DF910895DF93CF93CDB7DEB781E00D
:1008300064E040E00E94410081E065E040E00E9409
:10084000410081E066E041E00E94410081E067E014
:1008500040E00E944100ADE2B0E0EDE2F0E08081D6
:100860008F778C93ADE2B0E0EDE2F0E080818064C0
:100870008C93ADE2B0E0EDE2F0E080818F7D8C936F
:10088000ADE2B0E0EDE2F0E080818F7E8C93ADE2EE
:10089000B0E0EDE2F0E08081877F8C93ADE2B0E0E4
:1008A000EDE2F0E080818B7F8C93ADE2B0E0EDE291
:1008B000F0E080818D7F8C93ADE2B0E0EDE2F0E07E
:1008C000808181608C93AEE2B0E0EEE2F0E0808166
:1008D00081608C93CF91DF910895DF93CF930F9236
:1008E000CDB7DEB78983EFE2F0E089818083EEE265
:1008F000F0E080818823DCF7EFE2F0E080810F9068
:10090000CF91DF910895DF93CF93CDB7DEB7AAE201
:10091000B0E0EAE2F0E0808188608C93AAE2B0E087
:10092000EAE2F0E0808180618C93E0E4F0E086E828
:100930008083E9E2F0E083E38083CF91DF91089543
:10094000DF93CF9300D0CDB7DEB79A838983EBE2F4
:10095000F0E08081829586958770882F90E0817085
:1009600090700097A1F3ECE2F0E0898180830F9012
:100970000F90CF91DF910895DF93CF93CDB7DEB77E
:10098000EBE2F0E080818823DCF7ECE2F0E08081AC
:10099000882F90E0CF91DF910895DF93CF9300D01F
:1009A000CDB7DEB79A8389830CC0E981FA81808153
:1009B000882F90E00E94A00489819A8101969A83F1
:1009C0008983E981FA818081882379F70F900F90DC
:1009D000CF91DF910895DF93CF930F92CDB7DEB71C
:1009E0000E9413040E94830482E60E946D0489839E
:1009F0008981823621F480E690E00E94CD04FFCF09
:040A0000F894FFCF98
:080A040077656C636F6D6500FE
:00000001FF
